{
  "fileName": "Ad.sol",
  "contractName": "Ad",
  "source": "pragma solidity ^0.6.0;\n\nimport \"@openzeppelin/contracts/token/ERC721/ERC721.sol\";\nimport \"@openzeppelin/contracts/utils/Counters.sol\";\nimport \"@openzeppelin/contracts/access/Ownable.sol\";\n\ncontract Ad is ERC721, Ownable {\n    \n    using Counters for Counters.Counter;\n    Counters.Counter private _tokenIds;\n    \n    struct AdMetadata {\n        string ipfsHash;\n        uint64 startingTime;\n        uint64 expiryDate;\n    }\n    \n    mapping (uint256 => AdMetadata) public adIdToMetadata;\n    mapping (uint64 => uint256) public startingTimeToTokenId;\n    \n    constructor() public ERC721(\"FuzzyAds\", \"FUZZY\") {}\n    \n    function createAd(uint64 startingTime, string memory tokenURI) public onlyOwner returns (uint256)\n    {\n        _tokenIds.increment();\n        \n        uint256 newItemId = _tokenIds.current();\n        \n        startingTimeToTokenId[startingTime] = newItemId;\n        adIdToMetadata[newItemId] = AdMetadata(\"{}\", startingTime, startingTime + 1 days);\n        \n        _mint(msg.sender, newItemId);\n        _setTokenURI(newItemId, tokenURI);\n        \n        return newItemId;\n    }\n    function getAdMetadata(uint tokenId) public view returns(string memory){\n        return adIdToMetadata[tokenId].ipfsHash;\n    }\n    \n    function setAdMetadata(uint256 tokenId, string memory ipfsHash) public {\n        if(msg.sender == ownerOf(tokenId)){\n            adIdToMetadata[tokenId].ipfsHash = ipfsHash;\n        }\n    }\n}",
  "sourcePath": "contracts/Ad.sol",
  "abi": [
    {
      "inputs": [],
      "stateMutability": "nonpayable",
      "type": "constructor"
    },
    {
      "anonymous": false,
      "inputs": [
        {
          "indexed": true,
          "internalType": "address",
          "name": "owner",
          "type": "address"
        },
        {
          "indexed": true,
          "internalType": "address",
          "name": "approved",
          "type": "address"
        },
        {
          "indexed": true,
          "internalType": "uint256",
          "name": "tokenId",
          "type": "uint256"
        }
      ],
      "name": "Approval",
      "type": "event"
    },
    {
      "anonymous": false,
      "inputs": [
        {
          "indexed": true,
          "internalType": "address",
          "name": "owner",
          "type": "address"
        },
        {
          "indexed": true,
          "internalType": "address",
          "name": "operator",
          "type": "address"
        },
        {
          "indexed": false,
          "internalType": "bool",
          "name": "approved",
          "type": "bool"
        }
      ],
      "name": "ApprovalForAll",
      "type": "event"
    },
    {
      "anonymous": false,
      "inputs": [
        {
          "indexed": true,
          "internalType": "address",
          "name": "previousOwner",
          "type": "address"
        },
        {
          "indexed": true,
          "internalType": "address",
          "name": "newOwner",
          "type": "address"
        }
      ],
      "name": "OwnershipTransferred",
      "type": "event"
    },
    {
      "anonymous": false,
      "inputs": [
        {
          "indexed": true,
          "internalType": "address",
          "name": "from",
          "type": "address"
        },
        {
          "indexed": true,
          "internalType": "address",
          "name": "to",
          "type": "address"
        },
        {
          "indexed": true,
          "internalType": "uint256",
          "name": "tokenId",
          "type": "uint256"
        }
      ],
      "name": "Transfer",
      "type": "event"
    },
    {
      "inputs": [
        {
          "internalType": "uint256",
          "name": "",
          "type": "uint256"
        }
      ],
      "name": "adIdToMetadata",
      "outputs": [
        {
          "internalType": "string",
          "name": "ipfsHash",
          "type": "string"
        },
        {
          "internalType": "uint64",
          "name": "startingTime",
          "type": "uint64"
        },
        {
          "internalType": "uint64",
          "name": "expiryDate",
          "type": "uint64"
        }
      ],
      "stateMutability": "view",
      "type": "function"
    },
    {
      "inputs": [
        {
          "internalType": "address",
          "name": "to",
          "type": "address"
        },
        {
          "internalType": "uint256",
          "name": "tokenId",
          "type": "uint256"
        }
      ],
      "name": "approve",
      "outputs": [],
      "stateMutability": "nonpayable",
      "type": "function"
    },
    {
      "inputs": [
        {
          "internalType": "address",
          "name": "owner",
          "type": "address"
        }
      ],
      "name": "balanceOf",
      "outputs": [
        {
          "internalType": "uint256",
          "name": "",
          "type": "uint256"
        }
      ],
      "stateMutability": "view",
      "type": "function"
    },
    {
      "inputs": [],
      "name": "baseURI",
      "outputs": [
        {
          "internalType": "string",
          "name": "",
          "type": "string"
        }
      ],
      "stateMutability": "view",
      "type": "function"
    },
    {
      "inputs": [
        {
          "internalType": "uint64",
          "name": "startingTime",
          "type": "uint64"
        },
        {
          "internalType": "string",
          "name": "tokenURI",
          "type": "string"
        }
      ],
      "name": "createAd",
      "outputs": [
        {
          "internalType": "uint256",
          "name": "",
          "type": "uint256"
        }
      ],
      "stateMutability": "nonpayable",
      "type": "function"
    },
    {
      "inputs": [
        {
          "internalType": "uint256",
          "name": "tokenId",
          "type": "uint256"
        }
      ],
      "name": "getAdMetadata",
      "outputs": [
        {
          "internalType": "string",
          "name": "",
          "type": "string"
        }
      ],
      "stateMutability": "view",
      "type": "function"
    },
    {
      "inputs": [
        {
          "internalType": "uint256",
          "name": "tokenId",
          "type": "uint256"
        }
      ],
      "name": "getApproved",
      "outputs": [
        {
          "internalType": "address",
          "name": "",
          "type": "address"
        }
      ],
      "stateMutability": "view",
      "type": "function"
    },
    {
      "inputs": [
        {
          "internalType": "address",
          "name": "owner",
          "type": "address"
        },
        {
          "internalType": "address",
          "name": "operator",
          "type": "address"
        }
      ],
      "name": "isApprovedForAll",
      "outputs": [
        {
          "internalType": "bool",
          "name": "",
          "type": "bool"
        }
      ],
      "stateMutability": "view",
      "type": "function"
    },
    {
      "inputs": [],
      "name": "name",
      "outputs": [
        {
          "internalType": "string",
          "name": "",
          "type": "string"
        }
      ],
      "stateMutability": "view",
      "type": "function"
    },
    {
      "inputs": [],
      "name": "owner",
      "outputs": [
        {
          "internalType": "address",
          "name": "",
          "type": "address"
        }
      ],
      "stateMutability": "view",
      "type": "function"
    },
    {
      "inputs": [
        {
          "internalType": "uint256",
          "name": "tokenId",
          "type": "uint256"
        }
      ],
      "name": "ownerOf",
      "outputs": [
        {
          "internalType": "address",
          "name": "",
          "type": "address"
        }
      ],
      "stateMutability": "view",
      "type": "function"
    },
    {
      "inputs": [],
      "name": "renounceOwnership",
      "outputs": [],
      "stateMutability": "nonpayable",
      "type": "function"
    },
    {
      "inputs": [
        {
          "internalType": "address",
          "name": "from",
          "type": "address"
        },
        {
          "internalType": "address",
          "name": "to",
          "type": "address"
        },
        {
          "internalType": "uint256",
          "name": "tokenId",
          "type": "uint256"
        }
      ],
      "name": "safeTransferFrom",
      "outputs": [],
      "stateMutability": "nonpayable",
      "type": "function"
    },
    {
      "inputs": [
        {
          "internalType": "address",
          "name": "from",
          "type": "address"
        },
        {
          "internalType": "address",
          "name": "to",
          "type": "address"
        },
        {
          "internalType": "uint256",
          "name": "tokenId",
          "type": "uint256"
        },
        {
          "internalType": "bytes",
          "name": "_data",
          "type": "bytes"
        }
      ],
      "name": "safeTransferFrom",
      "outputs": [],
      "stateMutability": "nonpayable",
      "type": "function"
    },
    {
      "inputs": [
        {
          "internalType": "uint256",
          "name": "tokenId",
          "type": "uint256"
        },
        {
          "internalType": "string",
          "name": "ipfsHash",
          "type": "string"
        }
      ],
      "name": "setAdMetadata",
      "outputs": [],
      "stateMutability": "nonpayable",
      "type": "function"
    },
    {
      "inputs": [
        {
          "internalType": "address",
          "name": "operator",
          "type": "address"
        },
        {
          "internalType": "bool",
          "name": "approved",
          "type": "bool"
        }
      ],
      "name": "setApprovalForAll",
      "outputs": [],
      "stateMutability": "nonpayable",
      "type": "function"
    },
    {
      "inputs": [
        {
          "internalType": "uint64",
          "name": "",
          "type": "uint64"
        }
      ],
      "name": "startingTimeToTokenId",
      "outputs": [
        {
          "internalType": "uint256",
          "name": "",
          "type": "uint256"
        }
      ],
      "stateMutability": "view",
      "type": "function"
    },
    {
      "inputs": [
        {
          "internalType": "bytes4",
          "name": "interfaceId",
          "type": "bytes4"
        }
      ],
      "name": "supportsInterface",
      "outputs": [
        {
          "internalType": "bool",
          "name": "",
          "type": "bool"
        }
      ],
      "stateMutability": "view",
      "type": "function"
    },
    {
      "inputs": [],
      "name": "symbol",
      "outputs": [
        {
          "internalType": "string",
          "name": "",
          "type": "string"
        }
      ],
      "stateMutability": "view",
      "type": "function"
    },
    {
      "inputs": [
        {
          "internalType": "uint256",
          "name": "index",
          "type": "uint256"
        }
      ],
      "name": "tokenByIndex",
      "outputs": [
        {
          "internalType": "uint256",
          "name": "",
          "type": "uint256"
        }
      ],
      "stateMutability": "view",
      "type": "function"
    },
    {
      "inputs": [
        {
          "internalType": "address",
          "name": "owner",
          "type": "address"
        },
        {
          "internalType": "uint256",
          "name": "index",
          "type": "uint256"
        }
      ],
      "name": "tokenOfOwnerByIndex",
      "outputs": [
        {
          "internalType": "uint256",
          "name": "",
          "type": "uint256"
        }
      ],
      "stateMutability": "view",
      "type": "function"
    },
    {
      "inputs": [
        {
          "internalType": "uint256",
          "name": "tokenId",
          "type": "uint256"
        }
      ],
      "name": "tokenURI",
      "outputs": [
        {
          "internalType": "string",
          "name": "",
          "type": "string"
        }
      ],
      "stateMutability": "view",
      "type": "function"
    },
    {
      "inputs": [],
      "name": "totalSupply",
      "outputs": [
        {
          "internalType": "uint256",
          "name": "",
          "type": "uint256"
        }
      ],
      "stateMutability": "view",
      "type": "function"
    },
    {
      "inputs": [
        {
          "internalType": "address",
          "name": "from",
          "type": "address"
        },
        {
          "internalType": "address",
          "name": "to",
          "type": "address"
        },
        {
          "internalType": "uint256",
          "name": "tokenId",
          "type": "uint256"
        }
      ],
      "name": "transferFrom",
      "outputs": [],
      "stateMutability": "nonpayable",
      "type": "function"
    },
    {
      "inputs": [
        {
          "internalType": "address",
          "name": "newOwner",
          "type": "address"
        }
      ],
      "name": "transferOwnership",
      "outputs": [],
      "stateMutability": "nonpayable",
      "type": "function"
    }
  ],
  "bytecode": "0x60806040523480156200001157600080fd5b506040518060400160405280600881526020017f46757a7a794164730000000000000000000000000000000000000000000000008152506040518060400160405280600581526020017f46555a5a59000000000000000000000000000000000000000000000000000000815250620000966301ffc9a760e01b620001c960201b60201c565b8160069080519060200190620000ae929190620002da565b508060079080519060200190620000c7929190620002da565b50620000e06380ac58cd60e01b620001c960201b60201c565b620000f8635b5e139f60e01b620001c960201b60201c565b6200011063780e9d6360e01b620001c960201b60201c565b5050600062000124620002d260201b60201c565b905080600a60006101000a81548173ffffffffffffffffffffffffffffffffffffffff021916908373ffffffffffffffffffffffffffffffffffffffff1602179055508073ffffffffffffffffffffffffffffffffffffffff16600073ffffffffffffffffffffffffffffffffffffffff167f8be0079c531659141344cd1fd0a4f28419497f9722a3daafe3b4186f6b6457e060405160405180910390a35062000389565b63ffffffff60e01b817bffffffffffffffffffffffffffffffffffffffffffffffffffffffff1916141562000266576040517f08c379a000000000000000000000000000000000000000000000000000000000815260040180806020018281038252601c8152602001807f4552433136353a20696e76616c696420696e746572666163652069640000000081525060200191505060405180910390fd5b6001600080837bffffffffffffffffffffffffffffffffffffffffffffffffffffffff19167bffffffffffffffffffffffffffffffffffffffffffffffffffffffff1916815260200190815260200160002060006101000a81548160ff02191690831515021790555050565b600033905090565b828054600181600116156101000203166002900490600052602060002090601f016020900481019282601f106200031d57805160ff19168380011785556200034e565b828001600101855582156200034e579182015b828111156200034d57825182559160200191906001019062000330565b5b5090506200035d919062000361565b5090565b6200038691905b808211156200038257600081600090555060010162000368565b5090565b90565b61376580620003996000396000f3fe608060405234801561001057600080fd5b50600436106101735760003560e01c80636c0360eb116100de578063a22cb46511610097578063e459d72711610071578063e459d72714610aac578063e985e9c514610b71578063f2fde38b14610bed578063fa7b1b6214610c3157610173565b8063a22cb465146108b0578063b88d4fde14610900578063c87b56dd14610a0557610173565b80636c0360eb146106b25780636e36ceed1461073557806370a0823114610781578063715018a6146107d95780638da5cb5b146107e357806395d89b411461082d57610173565b80632cae6c8f116101305780632cae6c8f146103a85780632f745c591461048b57806342842e0e146104ed5780634f6ccce71461055b578063530d450f1461059d5780636352211e1461064457610173565b806301ffc9a71461017857806306fdde03146101dd578063081812fc14610260578063095ea7b3146102ce57806318160ddd1461031c57806323b872dd1461033a575b600080fd5b6101c36004803603602081101561018e57600080fd5b8101908080357bffffffffffffffffffffffffffffffffffffffffffffffffffffffff19169060200190929190505050610d0e565b604051808215151515815260200191505060405180910390f35b6101e5610d75565b6040518080602001828103825283818151815260200191508051906020019080838360005b8381101561022557808201518184015260208101905061020a565b50505050905090810190601f1680156102525780820380516001836020036101000a031916815260200191505b509250505060405180910390f35b61028c6004803603602081101561027657600080fd5b8101908080359060200190929190505050610e17565b604051808273ffffffffffffffffffffffffffffffffffffffff1673ffffffffffffffffffffffffffffffffffffffff16815260200191505060405180910390f35b61031a600480360360408110156102e457600080fd5b81019080803573ffffffffffffffffffffffffffffffffffffffff16906020019092919080359060200190929190505050610eb2565b005b610324610ff6565b6040518082815260200191505060405180910390f35b6103a66004803603606081101561035057600080fd5b81019080803573ffffffffffffffffffffffffffffffffffffffff169060200190929190803573ffffffffffffffffffffffffffffffffffffffff16906020019092919080359060200190929190505050611007565b005b610475600480360360408110156103be57600080fd5b81019080803567ffffffffffffffff169060200190929190803590602001906401000000008111156103ef57600080fd5b82018360208201111561040157600080fd5b8035906020019184600183028401116401000000008311171561042357600080fd5b91908080601f016020809104026020016040519081016040528093929190818152602001838380828437600081840152601f19601f82011690508083019250505050505050919291929050505061107d565b6040518082815260200191505060405180910390f35b6104d7600480360360408110156104a157600080fd5b81019080803573ffffffffffffffffffffffffffffffffffffffff169060200190929190803590602001909291905050506112a5565b6040518082815260200191505060405180910390f35b6105596004803603606081101561050357600080fd5b81019080803573ffffffffffffffffffffffffffffffffffffffff169060200190929190803573ffffffffffffffffffffffffffffffffffffffff16906020019092919080359060200190929190505050611300565b005b6105876004803603602081101561057157600080fd5b8101908080359060200190929190505050611320565b6040518082815260200191505060405180910390f35b6105c9600480360360208110156105b357600080fd5b8101908080359060200190929190505050611343565b6040518080602001828103825283818151815260200191508051906020019080838360005b838110156106095780820151818401526020810190506105ee565b50505050905090810190601f1680156106365780820380516001836020036101000a031916815260200191505b509250505060405180910390f35b6106706004803603602081101561065a57600080fd5b81019080803590602001909291905050506113fb565b604051808273ffffffffffffffffffffffffffffffffffffffff1673ffffffffffffffffffffffffffffffffffffffff16815260200191505060405180910390f35b6106ba611432565b6040518080602001828103825283818151815260200191508051906020019080838360005b838110156106fa5780820151818401526020810190506106df565b50505050905090810190601f1680156107275780820380516001836020036101000a031916815260200191505b509250505060405180910390f35b61076b6004803603602081101561074b57600080fd5b81019080803567ffffffffffffffff1690602001909291905050506114d4565b6040518082815260200191505060405180910390f35b6107c36004803603602081101561079757600080fd5b81019080803573ffffffffffffffffffffffffffffffffffffffff1690602001909291905050506114ec565b6040518082815260200191505060405180910390f35b6107e16115c1565b005b6107eb61174c565b604051808273ffffffffffffffffffffffffffffffffffffffff1673ffffffffffffffffffffffffffffffffffffffff16815260200191505060405180910390f35b610835611776565b6040518080602001828103825283818151815260200191508051906020019080838360005b8381101561087557808201518184015260208101905061085a565b50505050905090810190601f1680156108a25780820380516001836020036101000a031916815260200191505b509250505060405180910390f35b6108fe600480360360408110156108c657600080fd5b81019080803573ffffffffffffffffffffffffffffffffffffffff169060200190929190803515159060200190929190505050611818565b005b610a036004803603608081101561091657600080fd5b81019080803573ffffffffffffffffffffffffffffffffffffffff169060200190929190803573ffffffffffffffffffffffffffffffffffffffff169060200190929190803590602001909291908035906020019064010000000081111561097d57600080fd5b82018360208201111561098f57600080fd5b803590602001918460018302840111640100000000831117156109b157600080fd5b91908080601f016020809104026020016040519081016040528093929190818152602001838380828437600081840152601f19601f8201169050808301925050505050505091929192905050506119d0565b005b610a3160048036036020811015610a1b57600080fd5b8101908080359060200190929190505050611a48565b6040518080602001828103825283818151815260200191508051906020019080838360005b83811015610a71578082015181840152602081019050610a56565b50505050905090810190601f168015610a9e5780820380516001836020036101000a031916815260200191505b509250505060405180910390f35b610b6f60048036036040811015610ac257600080fd5b810190808035906020019092919080359060200190640100000000811115610ae957600080fd5b820183602082011115610afb57600080fd5b80359060200191846001830284011164010000000083111715610b1d57600080fd5b91908080601f016020809104026020016040519081016040528093929190818152602001838380828437600081840152601f19601f820116905080830192505050505050509192919290505050611d31565b005b610bd360048036036040811015610b8757600080fd5b81019080803573ffffffffffffffffffffffffffffffffffffffff169060200190929190803573ffffffffffffffffffffffffffffffffffffffff169060200190929190505050611d9d565b604051808215151515815260200191505060405180910390f35b610c2f60048036036020811015610c0357600080fd5b81019080803573ffffffffffffffffffffffffffffffffffffffff169060200190929190505050611e31565b005b610c5d60048036036020811015610c4757600080fd5b8101908080359060200190929190505050612041565b60405180806020018467ffffffffffffffff1667ffffffffffffffff1681526020018367ffffffffffffffff1667ffffffffffffffff168152602001828103825285818151815260200191508051906020019080838360005b83811015610cd1578082015181840152602081019050610cb6565b50505050905090810190601f168015610cfe5780820380516001836020036101000a031916815260200191505b5094505050505060405180910390f35b6000806000837bffffffffffffffffffffffffffffffffffffffffffffffffffffffff19167bffffffffffffffffffffffffffffffffffffffffffffffffffffffff1916815260200190815260200160002060009054906101000a900460ff169050919050565b606060068054600181600116156101000203166002900480601f016020809104026020016040519081016040528092919081815260200182805460018160011615610100020316600290048015610e0d5780601f10610de257610100808354040283529160200191610e0d565b820191906000526020600020905b815481529060010190602001808311610df057829003601f168201915b5050505050905090565b6000610e228261212b565b610e77576040517f08c379a000000000000000000000000000000000000000000000000000000000815260040180806020018281038252602c81526020018061362e602c913960400191505060405180910390fd5b6004600083815260200190815260200160002060009054906101000a900473ffffffffffffffffffffffffffffffffffffffff169050919050565b6000610ebd826113fb565b90508073ffffffffffffffffffffffffffffffffffffffff168373ffffffffffffffffffffffffffffffffffffffff161415610f44576040517f08c379a00000000000000000000000000000000000000000000000000000000081526004018080602001828103825260218152602001806136de6021913960400191505060405180910390fd5b8073ffffffffffffffffffffffffffffffffffffffff16610f63612148565b73ffffffffffffffffffffffffffffffffffffffff161480610f925750610f9181610f8c612148565b611d9d565b5b610fe7576040517f08c379a00000000000000000000000000000000000000000000000000000000081526004018080602001828103825260388152602001806135816038913960400191505060405180910390fd5b610ff18383612150565b505050565b60006110026002612209565b905090565b611018611012612148565b8261221e565b61106d576040517f08c379a00000000000000000000000000000000000000000000000000000000081526004018080602001828103825260318152602001806136ff6031913960400191505060405180910390fd5b611078838383612312565b505050565b6000611087612148565b73ffffffffffffffffffffffffffffffffffffffff16600a60009054906101000a900473ffffffffffffffffffffffffffffffffffffffff1673ffffffffffffffffffffffffffffffffffffffff1614611149576040517f08c379a00000000000000000000000000000000000000000000000000000000081526004018080602001828103825260208152602001807f4f776e61626c653a2063616c6c6572206973206e6f7420746865206f776e657281525060200191505060405180910390fd5b611153600b612555565b600061115f600b61256b565b905080600d60008667ffffffffffffffff1667ffffffffffffffff1681526020019081526020016000208190555060405180606001604052806040518060400160405280600281526020017f7b7d00000000000000000000000000000000000000000000000000000000000081525081526020018567ffffffffffffffff16815260200162015180860167ffffffffffffffff16815250600c60008381526020019081526020016000206000820151816000019080519060200190611225929190613411565b5060208201518160010160006101000a81548167ffffffffffffffff021916908367ffffffffffffffff16021790555060408201518160010160086101000a81548167ffffffffffffffff021916908367ffffffffffffffff1602179055509050506112913382612579565b61129b818461276d565b8091505092915050565b60006112f882600160008673ffffffffffffffffffffffffffffffffffffffff1673ffffffffffffffffffffffffffffffffffffffff1681526020019081526020016000206127f790919063ffffffff16565b905092915050565b61131b838383604051806020016040528060008152506119d0565b505050565b60008061133783600261281190919063ffffffff16565b50905080915050919050565b6060600c60008381526020019081526020016000206000018054600181600116156101000203166002900480601f0160208091040260200160405190810160405280929190818152602001828054600181600116156101000203166002900480156113ef5780601f106113c4576101008083540402835291602001916113ef565b820191906000526020600020905b8154815290600101906020018083116113d257829003601f168201915b50505050509050919050565b600061142b826040518060600160405280602981526020016135e36029913960026128409092919063ffffffff16565b9050919050565b606060098054600181600116156101000203166002900480601f0160208091040260200160405190810160405280929190818152602001828054600181600116156101000203166002900480156114ca5780601f1061149f576101008083540402835291602001916114ca565b820191906000526020600020905b8154815290600101906020018083116114ad57829003601f168201915b5050505050905090565b600d6020528060005260406000206000915090505481565b60008073ffffffffffffffffffffffffffffffffffffffff168273ffffffffffffffffffffffffffffffffffffffff161415611573576040517f08c379a000000000000000000000000000000000000000000000000000000000815260040180806020018281038252602a8152602001806135b9602a913960400191505060405180910390fd5b6115ba600160008473ffffffffffffffffffffffffffffffffffffffff1673ffffffffffffffffffffffffffffffffffffffff16815260200190815260200160002061285f565b9050919050565b6115c9612148565b73ffffffffffffffffffffffffffffffffffffffff16600a60009054906101000a900473ffffffffffffffffffffffffffffffffffffffff1673ffffffffffffffffffffffffffffffffffffffff161461168b576040517f08c379a00000000000000000000000000000000000000000000000000000000081526004018080602001828103825260208152602001807f4f776e61626c653a2063616c6c6572206973206e6f7420746865206f776e657281525060200191505060405180910390fd5b600073ffffffffffffffffffffffffffffffffffffffff16600a60009054906101000a900473ffffffffffffffffffffffffffffffffffffffff1673ffffffffffffffffffffffffffffffffffffffff167f8be0079c531659141344cd1fd0a4f28419497f9722a3daafe3b4186f6b6457e060405160405180910390a36000600a60006101000a81548173ffffffffffffffffffffffffffffffffffffffff021916908373ffffffffffffffffffffffffffffffffffffffff160217905550565b6000600a60009054906101000a900473ffffffffffffffffffffffffffffffffffffffff16905090565b606060078054600181600116156101000203166002900480601f01602080910402602001604051908101604052809291908181526020018280546001816001161561010002031660029004801561180e5780601f106117e35761010080835404028352916020019161180e565b820191906000526020600020905b8154815290600101906020018083116117f157829003601f168201915b5050505050905090565b611820612148565b73ffffffffffffffffffffffffffffffffffffffff168273ffffffffffffffffffffffffffffffffffffffff1614156118c1576040517f08c379a00000000000000000000000000000000000000000000000000000000081526004018080602001828103825260198152602001807f4552433732313a20617070726f766520746f2063616c6c65720000000000000081525060200191505060405180910390fd5b80600560006118ce612148565b73ffffffffffffffffffffffffffffffffffffffff1673ffffffffffffffffffffffffffffffffffffffff16815260200190815260200160002060008473ffffffffffffffffffffffffffffffffffffffff1673ffffffffffffffffffffffffffffffffffffffff16815260200190815260200160002060006101000a81548160ff0219169083151502179055508173ffffffffffffffffffffffffffffffffffffffff1661197b612148565b73ffffffffffffffffffffffffffffffffffffffff167f17307eab39ab6107e8899845ad3d59bd9653f200f220920489ca2b5937696c3183604051808215151515815260200191505060405180910390a35050565b6119e16119db612148565b8361221e565b611a36576040517f08c379a00000000000000000000000000000000000000000000000000000000081526004018080602001828103825260318152602001806136ff6031913960400191505060405180910390fd5b611a4284848484612874565b50505050565b6060611a538261212b565b611aa8576040517f08c379a000000000000000000000000000000000000000000000000000000000815260040180806020018281038252602f8152602001806136af602f913960400191505060405180910390fd5b6060600860008481526020019081526020016000208054600181600116156101000203166002900480601f016020809104026020016040519081016040528092919081815260200182805460018160011615610100020316600290048015611b515780601f10611b2657610100808354040283529160200191611b51565b820191906000526020600020905b815481529060010190602001808311611b3457829003601f168201915b50505050509050600060098054600181600116156101000203166002900490501415611b805780915050611d2c565b600081511115611c59576009816040516020018083805460018160011615610100020316600290048015611beb5780601f10611bc9576101008083540402835291820191611beb565b820191906000526020600020905b815481529060010190602001808311611bd7575b505082805190602001908083835b60208310611c1c5780518252602082019150602081019050602083039250611bf9565b6001836020036101000a03801982511681845116808217855250505050505090500192505050604051602081830303815290604052915050611d2c565b6009611c64846128e6565b6040516020018083805460018160011615610100020316600290048015611cc25780601f10611ca0576101008083540402835291820191611cc2565b820191906000526020600020905b815481529060010190602001808311611cae575b505082805190602001908083835b60208310611cf35780518252602082019150602081019050602083039250611cd0565b6001836020036101000a038019825116818451168082178552505050505050905001925050506040516020818303038152906040529150505b919050565b611d3a826113fb565b73ffffffffffffffffffffffffffffffffffffffff163373ffffffffffffffffffffffffffffffffffffffff161415611d995780600c60008481526020019081526020016000206000019080519060200190611d97929190613411565b505b5050565b6000600560008473ffffffffffffffffffffffffffffffffffffffff1673ffffffffffffffffffffffffffffffffffffffff16815260200190815260200160002060008373ffffffffffffffffffffffffffffffffffffffff1673ffffffffffffffffffffffffffffffffffffffff16815260200190815260200160002060009054906101000a900460ff16905092915050565b611e39612148565b73ffffffffffffffffffffffffffffffffffffffff16600a60009054906101000a900473ffffffffffffffffffffffffffffffffffffffff1673ffffffffffffffffffffffffffffffffffffffff1614611efb576040517f08c379a00000000000000000000000000000000000000000000000000000000081526004018080602001828103825260208152602001807f4f776e61626c653a2063616c6c6572206973206e6f7420746865206f776e657281525060200191505060405180910390fd5b600073ffffffffffffffffffffffffffffffffffffffff168173ffffffffffffffffffffffffffffffffffffffff161415611f81576040517f08c379a000000000000000000000000000000000000000000000000000000000815260040180806020018281038252602681526020018061350b6026913960400191505060405180910390fd5b8073ffffffffffffffffffffffffffffffffffffffff16600a60009054906101000a900473ffffffffffffffffffffffffffffffffffffffff1673ffffffffffffffffffffffffffffffffffffffff167f8be0079c531659141344cd1fd0a4f28419497f9722a3daafe3b4186f6b6457e060405160405180910390a380600a60006101000a81548173ffffffffffffffffffffffffffffffffffffffff021916908373ffffffffffffffffffffffffffffffffffffffff16021790555050565b600c602052806000526040600020600091509050806000018054600181600116156101000203166002900480601f0160208091040260200160405190810160405280929190818152602001828054600181600116156101000203166002900480156120ed5780601f106120c2576101008083540402835291602001916120ed565b820191906000526020600020905b8154815290600101906020018083116120d057829003601f168201915b5050505050908060010160009054906101000a900467ffffffffffffffff16908060010160089054906101000a900467ffffffffffffffff16905083565b6000612141826002612a2d90919063ffffffff16565b9050919050565b600033905090565b816004600083815260200190815260200160002060006101000a81548173ffffffffffffffffffffffffffffffffffffffff021916908373ffffffffffffffffffffffffffffffffffffffff160217905550808273ffffffffffffffffffffffffffffffffffffffff166121c3836113fb565b73ffffffffffffffffffffffffffffffffffffffff167f8c5be1e5ebec7d5bd14f71427d1e84f3dd0314c0f7b2291e5b200ac8c7c3b92560405160405180910390a45050565b600061221782600001612a47565b9050919050565b60006122298261212b565b61227e576040517f08c379a000000000000000000000000000000000000000000000000000000000815260040180806020018281038252602c815260200180613555602c913960400191505060405180910390fd5b6000612289836113fb565b90508073ffffffffffffffffffffffffffffffffffffffff168473ffffffffffffffffffffffffffffffffffffffff1614806122f857508373ffffffffffffffffffffffffffffffffffffffff166122e084610e17565b73ffffffffffffffffffffffffffffffffffffffff16145b8061230957506123088185611d9d565b5b91505092915050565b8273ffffffffffffffffffffffffffffffffffffffff16612332826113fb565b73ffffffffffffffffffffffffffffffffffffffff161461239e576040517f08c379a00000000000000000000000000000000000000000000000000000000081526004018080602001828103825260298152602001806136866029913960400191505060405180910390fd5b600073ffffffffffffffffffffffffffffffffffffffff168273ffffffffffffffffffffffffffffffffffffffff161415612424576040517f08c379a00000000000000000000000000000000000000000000000000000000081526004018080602001828103825260248152602001806135316024913960400191505060405180910390fd5b61242f838383612a58565b61243a600082612150565b61248b81600160008673ffffffffffffffffffffffffffffffffffffffff1673ffffffffffffffffffffffffffffffffffffffff168152602001908152602001600020612a5d90919063ffffffff16565b506124dd81600160008573ffffffffffffffffffffffffffffffffffffffff1673ffffffffffffffffffffffffffffffffffffffff168152602001908152602001600020612a7790919063ffffffff16565b506124f481836002612a919092919063ffffffff16565b50808273ffffffffffffffffffffffffffffffffffffffff168473ffffffffffffffffffffffffffffffffffffffff167fddf252ad1be2c89b69c2b068fc378daa952ba7f163c4a11628f55a4df523b3ef60405160405180910390a4505050565b6001816000016000828254019250508190555050565b600081600001549050919050565b600073ffffffffffffffffffffffffffffffffffffffff168273ffffffffffffffffffffffffffffffffffffffff16141561261c576040517f08c379a00000000000000000000000000000000000000000000000000000000081526004018080602001828103825260208152602001807f4552433732313a206d696e7420746f20746865207a65726f206164647265737381525060200191505060405180910390fd5b6126258161212b565b15612698576040517f08c379a000000000000000000000000000000000000000000000000000000000815260040180806020018281038252601c8152602001807f4552433732313a20746f6b656e20616c7265616479206d696e7465640000000081525060200191505060405180910390fd5b6126a460008383612a58565b6126f581600160008573ffffffffffffffffffffffffffffffffffffffff1673ffffffffffffffffffffffffffffffffffffffff168152602001908152602001600020612a7790919063ffffffff16565b5061270c81836002612a919092919063ffffffff16565b50808273ffffffffffffffffffffffffffffffffffffffff16600073ffffffffffffffffffffffffffffffffffffffff167fddf252ad1be2c89b69c2b068fc378daa952ba7f163c4a11628f55a4df523b3ef60405160405180910390a45050565b6127768261212b565b6127cb576040517f08c379a000000000000000000000000000000000000000000000000000000000815260040180806020018281038252602c81526020018061365a602c913960400191505060405180910390fd5b806008600084815260200190815260200160002090805190602001906127f2929190613411565b505050565b60006128068360000183612ac6565b60001c905092915050565b6000806000806128248660000186612b49565b915091508160001c8160001c8090509350935050509250929050565b6000612853846000018460001b84612be2565b60001c90509392505050565b600061286d82600001612cd8565b9050919050565b61287f848484612312565b61288b84848484612ce9565b6128e0576040517f08c379a00000000000000000000000000000000000000000000000000000000081526004018080602001828103825260328152602001806134d96032913960400191505060405180910390fd5b50505050565b6060600082141561292e576040518060400160405280600181526020017f30000000000000000000000000000000000000000000000000000000000000008152509050612a28565b600082905060005b60008214612958578080600101915050600a828161295057fe5b049150612936565b60608167ffffffffffffffff8111801561297157600080fd5b506040519080825280601f01601f1916602001820160405280156129a45781602001600182028036833780820191505090505b50905060006001830390508593505b60008414612a2057600a84816129c557fe5b0660300160f81b828280600190039350815181106129df57fe5b60200101907effffffffffffffffffffffffffffffffffffffffffffffffffffffffffffff1916908160001a905350600a8481612a1857fe5b0493506129b3565b819450505050505b919050565b6000612a3f836000018360001b612f2e565b905092915050565b600081600001805490509050919050565b505050565b6000612a6f836000018360001b612f51565b905092915050565b6000612a89836000018360001b613039565b905092915050565b6000612abd846000018460001b8473ffffffffffffffffffffffffffffffffffffffff1660001b6130a9565b90509392505050565b600081836000018054905011612b27576040517f08c379a00000000000000000000000000000000000000000000000000000000081526004018080602001828103825260228152602001806134b76022913960400191505060405180910390fd5b826000018281548110612b3657fe5b9060005260206000200154905092915050565b60008082846000018054905011612bab576040517f08c379a000000000000000000000000000000000000000000000000000000000815260040180806020018281038252602281526020018061360c6022913960400191505060405180910390fd5b6000846000018481548110612bbc57fe5b906000526020600020906002020190508060000154816001015492509250509250929050565b60008084600101600085815260200190815260200160002054905060008114158390612ca9576040517f08c379a00000000000000000000000000000000000000000000000000000000081526004018080602001828103825283818151815260200191508051906020019080838360005b83811015612c6e578082015181840152602081019050612c53565b50505050905090810190601f168015612c9b5780820380516001836020036101000a031916815260200191505b509250505060405180910390fd5b50846000016001820381548110612cbc57fe5b9060005260206000209060020201600101549150509392505050565b600081600001805490509050919050565b6000612d0a8473ffffffffffffffffffffffffffffffffffffffff16613185565b612d175760019050612f26565b6060612ead63150b7a0260e01b612d2c612148565b888787604051602401808573ffffffffffffffffffffffffffffffffffffffff1673ffffffffffffffffffffffffffffffffffffffff1681526020018473ffffffffffffffffffffffffffffffffffffffff1673ffffffffffffffffffffffffffffffffffffffff16815260200183815260200180602001828103825283818151815260200191508051906020019080838360005b83811015612ddc578082015181840152602081019050612dc1565b50505050905090810190601f168015612e095780820380516001836020036101000a031916815260200191505b5095505050505050604051602081830303815290604052907bffffffffffffffffffffffffffffffffffffffffffffffffffffffff19166020820180517bffffffffffffffffffffffffffffffffffffffffffffffffffffffff83818316178352505050506040518060600160405280603281526020016134d9603291398773ffffffffffffffffffffffffffffffffffffffff166131d09092919063ffffffff16565b90506000818060200190516020811015612ec657600080fd5b8101908080519060200190929190505050905063150b7a0260e01b7bffffffffffffffffffffffffffffffffffffffffffffffffffffffff1916817bffffffffffffffffffffffffffffffffffffffffffffffffffffffff191614925050505b949350505050565b600080836001016000848152602001908152602001600020541415905092915050565b6000808360010160008481526020019081526020016000205490506000811461302d5760006001820390506000600186600001805490500390506000866000018281548110612f9c57fe5b9060005260206000200154905080876000018481548110612fb957fe5b9060005260206000200181905550600183018760010160008381526020019081526020016000208190555086600001805480612ff157fe5b60019003818190600052602060002001600090559055866001016000878152602001908152602001600020600090556001945050505050613033565b60009150505b92915050565b600061304583836131e8565b61309e5782600001829080600181540180825580915050600190039060005260206000200160009091909190915055826000018054905083600101600084815260200190815260200160002081905550600190506130a3565b600090505b92915050565b60008084600101600085815260200190815260200160002054905060008114156131505784600001604051806040016040528086815260200185815250908060018154018082558091505060019003906000526020600020906002020160009091909190915060008201518160000155602082015181600101555050846000018054905085600101600086815260200190815260200160002081905550600191505061317e565b8285600001600183038154811061316357fe5b90600052602060002090600202016001018190555060009150505b9392505050565b60008060007fc5d2460186f7233c927e7db2dcc703c0e500b653ca82273b7bfad8045d85a47060001b9050833f91508082141580156131c757506000801b8214155b92505050919050565b60606131df848460008561320b565b90509392505050565b600080836001016000848152602001908152602001600020541415905092915050565b606061321685613185565b613288576040517f08c379a000000000000000000000000000000000000000000000000000000000815260040180806020018281038252601d8152602001807f416464726573733a2063616c6c20746f206e6f6e2d636f6e747261637400000081525060200191505060405180910390fd5b600060608673ffffffffffffffffffffffffffffffffffffffff1685876040518082805190602001908083835b602083106132d857805182526020820191506020810190506020830392506132b5565b6001836020036101000a03801982511681845116808217855250505050505090500191505060006040518083038185875af1925050503d806000811461333a576040519150601f19603f3d011682016040523d82523d6000602084013e61333f565b606091505b50915091508115613354578092505050613409565b6000815111156133675780518082602001fd5b836040517f08c379a00000000000000000000000000000000000000000000000000000000081526004018080602001828103825283818151815260200191508051906020019080838360005b838110156133ce5780820151818401526020810190506133b3565b50505050905090810190601f1680156133fb5780820380516001836020036101000a031916815260200191505b509250505060405180910390fd5b949350505050565b828054600181600116156101000203166002900490600052602060002090601f016020900481019282601f1061345257805160ff1916838001178555613480565b82800160010185558215613480579182015b8281111561347f578251825591602001919060010190613464565b5b50905061348d9190613491565b5090565b6134b391905b808211156134af576000816000905550600101613497565b5090565b9056fe456e756d657261626c655365743a20696e646578206f7574206f6620626f756e64734552433732313a207472616e7366657220746f206e6f6e20455243373231526563656976657220696d706c656d656e7465724f776e61626c653a206e6577206f776e657220697320746865207a65726f20616464726573734552433732313a207472616e7366657220746f20746865207a65726f20616464726573734552433732313a206f70657261746f7220717565727920666f72206e6f6e6578697374656e7420746f6b656e4552433732313a20617070726f76652063616c6c6572206973206e6f74206f776e6572206e6f7220617070726f76656420666f7220616c6c4552433732313a2062616c616e636520717565727920666f7220746865207a65726f20616464726573734552433732313a206f776e657220717565727920666f72206e6f6e6578697374656e7420746f6b656e456e756d657261626c654d61703a20696e646578206f7574206f6620626f756e64734552433732313a20617070726f76656420717565727920666f72206e6f6e6578697374656e7420746f6b656e4552433732314d657461646174613a2055524920736574206f66206e6f6e6578697374656e7420746f6b656e4552433732313a207472616e73666572206f6620746f6b656e2074686174206973206e6f74206f776e4552433732314d657461646174613a2055524920717565727920666f72206e6f6e6578697374656e7420746f6b656e4552433732313a20617070726f76616c20746f2063757272656e74206f776e65724552433732313a207472616e736665722063616c6c6572206973206e6f74206f776e6572206e6f7220617070726f766564a2646970667358221220bd95f4819cc1dcb2289936aaa6f14caddd7736cc23bd476a825a339feaf75aa564736f6c634300060b0033",
  "compiler": {
    "name": "solc",
    "version": "0.6.11+commit.5ef660b1.Emscripten.clang",
    "optimizer": {
      "enabled": false,
      "runs": 200
    },
    "evmVersion": "petersburg"
  }
}